:020000040000fa
:080000000002040000000000f2
:020000040000fa
:04000800fa020000f8
:020000040000fa
:04000c00fa020000f4
:020000040000fa
:04001000fa020000f0
:020000040000fa
:04001400fa020000ec
:020000040000fa
:04001800fa020000e8
:020000040000fa
:04001c00fa020000e4
:020000040000fa
:04002000fa020000e0
:020000040000fa
:04002400fa020000dc
:020000040000fa
:04002800fa020000d8
:020000040000fa
:04002c006a0900005d
:020000040000fa
:04003000fa020000d0
:020000040000fa
:04003400fa020000cc
:020000040000fa
:04003800fa020000c8
:020000040000fa
:04003c00fa020000c4
:020000040000fa
:04004000fa020000c0
:020000040000fa
:04004400fa020000bc
:020000040000fa
:04004800fa020000b8
:020000040000fa
:04004c00fa020000b4
:020000040000fa
:04005000fa020000b0
:020000040000fa
:04005400220900007d
:020000040000fa
:04005800fa020000a8
:020000040000fa
:04005c00fa020000a4
:020000040000fa
:04006000fa020000a0
:020000040000fa
:04006400fa0200009c
:020000040000fa
:04006800fa02000098
:020000040000fa
:04006c00fa02000094
:020000040000fa
:04007000fa02000090
:020000040000fa
:04007400fa0200008c
:020000040000fa
:04007800fa02000088
:020000040000fa
:04007c00fa02000084
:020000040000fa
:04008000fa02000080
:020000040000fa
:04008400fa0200007c
:020000040000fa
:04008800fa02000078
:020000040000fa
:04008c00fa02000074
:020000040000fa
:04009000fa02000070
:020000040000fa
:04009400fa0200006c
:020000040000fa
:04009800fa02000068
:020000040000fa
:04009c00fa02000064
:020000040000fa
:0400a000fa02000060
:020000040000fa
:0400a400fa0200005c
:020000040000fa
:0400a800fa02000058
:020000040000fa
:0400ac00fa02000054
:020000040000fa
:0400b000fa02000050
:020000040000fa
:0400b400fa0200004c
:020000040000fa
:0400b800fa02000048
:020000040000fa
:0400bc00fa02000044
:020000040000fa
:0400c000fa02000040
:020000040000fa
:0400c400fa0200003c
:020000040000fa
:0400c800fa02000038
:020000040000fa
:0400cc00fa02000034
:020000040000fa
:0400d000fa02000030
:020000040000fa
:0400d400fa0200002c
:020000040000fa
:0400d800fa02000028
:020000040000fa
:0400dc00fa02000024
:020000040000fa
:0400e000fa02000020
:020000040000fa
:0400e400fa0200001c
:020000040000fa
:0400e800fa02000018
:020000040000fa
:0400ec00fa02000014
:020000040000fa
:0400f000fa02000010
:020000040000fa
:0400f400fa0200000c
:020000040000fa
:0400f800fa02000008
:020000040000fa
:0400fc00fa02000004
:020000040000fa
:04010000fa020000ff
:020000040000fa
:04010400fa020000fb
:020000040000fa
:04010800fa020000f7
:020000040000fa
:04010c00fa020000f3
:020000040000fa
:04011000fa020000ef
:020000040000fa
:04011400fa020000eb
:020000040000fa
:04011800fa020000e7
:020000040000fa
:04011c00fa020000e3
:020000040000fa
:04012000fa020000df
:020000040000fa
:04012400fa020000db
:020000040000fa
:04012800fa020000d7
:020000040000fa
:04012c00fa020000d3
:020000040000fa
:04013000fa020000cf
:020000040000fa
:04013400fa020000cb
:020000040000fa
:04013800fa020000c7
:020000040000fa
:04013c00fa020000c3
:020000040000fa
:04014000fa020000bf
:020000040000fa
:04014400fa020000bb
:020000040000fa
:04014800fa020000b7
:020000040000fa
:04014c00fa020000b3
:020000040000fa
:04015000fa020000af
:020000040000fa
:04015400fa020000ab
:020000040000fa
:04015800fa020000a7
:020000040000fa
:04015c00fa020000a3
:020000040000fa
:04016000fa0200009f
:020000040000fa
:04016400fa0200009b
:020000040000fa
:04016800fa02000097
:020000040000fa
:04016c00fa02000093
:020000040000fa
:04017000fa0200008f
:020000040000fa
:04017400fa0200008b
:020000040000fa
:04017800fa02000087
:020000040000fa
:04017c00fa02000083
:020000040000fa
:04018000fa0200007f
:020000040000fa
:04018400fa0200007b
:020000040000fa
:04018800fa02000077
:020000040000fa
:04018c00fa02000073
:020000040000fa
:04019000fa0200006f
:020000040000fa
:04019400fa0200006b
:020000040000fa
:04019800fa02000067
:020000040000fa
:04019c00fa02000063
:020000040000fa
:0401a000fa0200005f
:020000040000fa
:0401a400fa0200005b
:020000040000fa
:0401a800fa02000057
:020000040000fa
:0401ac00fa02000053
:020000040000fa
:0401b000fa0200004f
:020000040000fa
:0401b400fa0200004b
:020000040000fa
:0401b800fa02000047
:020000040000fa
:0401bc00fa02000043
:020000040000fa
:0401c000fa0200003f
:020000040000fa
:0401c400fa0200003b
:020000040000fa
:0401c800fa02000037
:020000040000fa
:0401cc00fa02000033
:020000040000fa
:0401d000fa0200002f
:020000040000fa
:0401d400fa0200002b
:020000040000fa
:0401d800fa02000027
:020000040000fa
:0401dc00fa02000023
:020000040000fa
:0401e000fa0200001f
:020000040000fa
:0401e400fa0200001b
:020000040000fa
:0401e800fa02000017
:020000040000fa
:0401ec00fa02000013
:020000040000fa
:0401f000fa0200000f
:020000040000fa
:0401f400fa0200000b
:020000040000fa
:0401f800fa02000007
:020000040000fa
:0401fc00fa02000003
:020000040000fa
:04020000fa020000fe
:020000040000fa
:04020400fa020000fa
:020000040000fa
:04020800fa020000f6
:020000040000fa
:04020c00fa020000f2
:020000040000fa
:04021000fa020000ee
:020000040000fa
:04021400fa020000ea
:020000040000fa
:04021800fa020000e6
:020000040000fa
:04021c00fa020000e2
:020000040000fa
:04022000fa020000de
:020000040000fa
:04022400fa020000da
:020000040000fa
:04022800fa020000d6
:020000040000fa
:04022c00fa020000d2
:020000040000fa
:04023000fa020000ce
:020000040000fa
:04023400fa020000ca
:020000040000fa
:04023800fa020000c6
:020000040000fa
:04023c00fa020000c2
:020000040000fa
:04024000fa020000be
:020000040000fa
:04024400fa020000ba
:020000040000fa
:04024800fa020000b6
:020000040000fa
:04024c00fa020000b2
:020000040000fa
:04025000fa020000ae
:020000040000fa
:04025400fa020000aa
:020000040000fa
:04025800fa020000a6
:020000040000fa
:04025c00fa020000a2
:020000040000fa
:04026000fa0200009e
:020000040000fa
:04026400fa0200009a
:020000040000fa
:04026800fa02000096
:020000040000fa
:04026c00fa02000092
:020000040000fa
:04027000fa0200008e
:020000040000fa
:04027400fa0200008a
:020000040000fa
:04027800fa02000086
:020000040000fa
:04027c00fa02000082
:020000040000fa
:04028000fa0200007e
:020000040000fa
:04028400fa0200007a
:020000040000fa
:04028800fa02000076
:020000040000fa
:04028c00fa02000072
:020000040000fa
:04029000fa0200006e
:020000040000fa
:04029400fa0200006a
:020000040000fa
:04029800fa02000066
:020000040000fa
:04029c00fa02000062
:020000040000fa
:0402a000fa0200005e
:020000040000fa
:0402a400fa0200005a
:020000040000fa
:0402a800fa02000056
:020000040000fa
:0402ac00fa02000052
:020000040000fa
:0402b000fa0200004e
:020000040000fa
:0402b400fa0200004a
:020000040000fa
:0402b800fa02000046
:020000040000fa
:0402bc00fa02000042
:020000040000fa
:0402c000fa0200003e
:020000040000fa
:0402c400fa0200003a
:020000040000fa
:0402c800fa02000036
:020000040000fa
:0402cc00fa02000032
:020000040000fa
:0402d000fa0200002e
:020000040000fa
:0402d400fa0200002a
:020000040000fa
:0402d800fa02000026
:020000040000fa
:0402dc00fa02000022
:020000040000fa
:0402e000fa0200001e
:020000040000fa
:0402e400fa0200001a
:020000040000fa
:0402e800fa02000016
:020000040000fa
:0402ec00fa02000012
:020000040000fa
:0402f000fa0200000e
:020000040000fa
:0402f400fa0200000a
:020000040000fa
:0402f800fa02000006
:020000040000fa
:0402fc00fa02000002
:020000040000fa
:04030000fa020000fd
:020000040000fa
:04030400fa020000f9
:020000040000fa
:04030800fa020000f5
:020000040000fa
:04030c00fa020000f1
:020000040000fa
:04031000fa020000ed
:020000040000fa
:100400006f0321000eff24000e0188000000000091
:10041000000020000000e000020032000001200087
:100420002002880014000700740007000000e000ac
:1004300003003a00e0a42000010020000200370081
:100440000000200001002000810f70000100320038
:100450000f000700000020000000e0000200320052
:1004600000000200000000007c0502000000000007
:100470000040da000000fe00200020000000e00044
:1004800002003200100020009001880000000600e9
:10049000a1028800800478000000eb001f003700f4
:1004a000e284440054a0b4009905ba00e2844400f8
:1004b00054a0b4009906ba00e284440054a0b400e9
:1004c0000006eb00476fde00fd07b200ae018800ba
:1004d000636ce10003003a000ad801000000eb0061
:1004e0000e003700606ce10008003a00004deb00a0
:1004f0000a05e800020039003420ec000af0a000f0
:100500008b05e900f9ff3e00040037006168e10057
:10051000010032000086eb000b00070019c7ba008b
:100520001905ba000e04e00003003a000a00e000da
:10053000dbff3a0000000600fe07b200ae028800b2
:100540008a047800f5ff37000cd0a300e20f4d00bd
:100550001c00390089027800354dba000a05e80010
:10056000020039003420ec000af0a0008b05e900fd
:100570000f003200254dba000a05e80002003900dc
:100580003420ec000af0a0008b05e90008003200de
:100590000c00e0000600320015cdba000a05e800a4
:1005a000020039003420ec000af0a0008b05e900bd
:1005b0008984e80054a0b4000b00e000e2ff3a0098
:1005c000000006009902ba00055d78008b05e9007d
:1005d000f7ff3200c82ade00055d78008b05e900d0
:1005e000f3ff32000c00e000f1ff320019ddba0029
:1005f000eeff37000040da000000fe0000000500ba
:10060000889fbe008a9fbe008c1f7800960007005e
:100610009d00330003866c006450e1002e00320020
:100620006420e100330032006150e1002f0032000d
:100630006120e1003100320085855500eb07b000f4
:1006400009002000080420000500370008044400c9
:1006500089844c000a0031000603430087834b0065
:100660000001530081815b00f8ff33000203be00ec
:100670000800a0000804440089844c00f6ff3900fb
:10068000c639dd0083017300010032001300200031
:100690008904d1000884d3000998a3000500320022
:1006a0000800a7000300a0008904d1000884d3003b
:1006b0008b05e8008904d1000884d3000001eb0019
:1006c0000281d2002d00070001f0a1000cf0a7006c
:1006d00001f0a000750037006420e10077003200cf
:1006e0000801be000200be00f7ff37006120e100f4
:1006f000720032006000b800f3ff370000002000f5
:1007000001f82700f0ff37000001be00410007009c
:100710000470a70003f0a10003f8a30013003a003f
:100720006509b10010003200090035006928e100b8
:100730000200350001002800000005000000400014
:10074000818048008502e900fcff3a0000000600b5
:10075000f88f4200050035008100d1000080d300f1
:100760008502e800fcff3a00000006008000eb0074
:10077000000005006011b800530037008100200020
:10078000618055000b003d000b00200061fe2f0032
:100790000100e1001d0034008281710061016400ec
:1007a0008904d1000884d3000000e800faff3a0071
:1007b000710020006100640003007000020060000e
:1007c0000900320061044400e0844c000988a5005f
:1007d000050032008b05e8006808e10002003a00dd
:1007e0008904d1000884d300f20f20000258e100f0
:1007f00005003d00c75ddd00f907b2008980750086
:1008000008007800000006000bf827008b00780035
:1008100000000500c70ade00f107b200f50fb200c4
:1008200008003200e1cf4200020032000170a00057
:1008300024000500810f700001003200040805004b
:1008400044000500810f700002003a00140005000a
:100850008502e9000000400081c04800fcff3b0029
:100860000170a000240005000004be00e9ff07009d
:100870000003be000405be000200be00e5ff070045
:10088000844f7500000006000200be006450e100c5
:10089000050036006420e100020036000968a3006c
:1008a00001003a000800be000160a0004f06780079
:1008b0004f05be004f04be0000000600f0ff2f00f1
:1008c000f1ff2700f9ff3700889fbe008a9fbe0016
:1008d0000082700004027100048271002600320060
:1008e0000004be000200be006011b8006b092000c9
:1008f000950220000182cf000a0039000541b100b5
:100900000082cf00070039000541b1000982cf0005
:10091000040039000541b1000882cf000100390010
:100920000541b10005425200120032000a003b00ae
:1009300082817100610164008100d1000080d300d8
:100940008984d3000884d3008b05e8000442e800c2
:10095000f7ff3a00070037000804440089844c0080
:1009600000004800818048008b05e9000442e9004e
:10097000f9ff3a0081ff07004f05be004f04be009b
:04098000000006006d
:020000040000fa
:100984000000fa0060c2b300c4e6b700a1338000df
:1009940000fc2f0000806000a0338800300020009d
:1009a400401188002002a9000111800090ff2f004f
:1009b400008060000011880020a2a9002062a90024
:1009c4002082a80023c2a80011118000f0f32f0098
:1009d400008060001011880021e2a8002342a800d2
:1009e4002168a80014cea8000080fa0000000600c8
:1009f4000000fa0021e3a9002143a80001198000a6
:100a0400f0cf2f00008060000019880001198000d9
:100a1400f0f12f0000806000001988001119800097
:100a2400f0cf2f0000806000101988001119800099
:100a3400f0ff210000806000101988002463ef009b
:100a440025e3a90028e3a9004119800000fc2f0038
:100a54000080600040198800000ea800002ea80045
:100a6400140ea800142ea800144ea800146ea8009a
:100a740021e3a8000080fa00000006000000fa004c
:100a8400158ea800c0c2b300aee6b700810880008e
:100a9400f0fc2f00008060000040a0008008880067
:100aa40011e1a8000028a9002028a8000142800024
:100ab400f0f82f00008060000040a0000042880091
:100ac400010a8000f03f2e000080600000a0a0001a
:100ad400000a8800010a800080ff2f000080600067
:100ae4000000a000000a88004221ef000080fa0004
:100af400000006000000fa0015eea900bcff070084
:100b04009fff0700ddff070050e6200001002000e2
:100b140053020700fcff37000400fa002047980046
:100b24000000eb00000f78002e409000f043b2006c
:100b34008080fb00f00320000080600042198000e8
:100b440001fc2f0081006100010070004019880041
:100b54002023a80000172000010020004002070005
:100b64002023a9000000000000198000610060003b
:100b74000000e000fcff320001188000010f780043
:100b84001e0078000080fa00000006000800fa0049
:100b9400300798000000eb00100798000000eb00fd
:100ba400000f7800080037003e0090001e0040004f
:100bb400104078000080fb009e0090000080400000
:100bc400100798001e0fe8001e007800e60f500082
:100bd400f5ff36009e009000f00f20000001780021
:100be400110009008280d8008000fd00f10f200070
:100bf40000805000100798001e00900040479800a5
:100c04004e4090000080fa00000006001400fa0034
:100c1400881f7800000478000040eb00beff070046
:100c24008000eb00629f20008289b900e002b900d5
:100c34008401780003014100639f20000300b80091
:100c44000101410082007800e00f5000e08f58005d
:100c540004003d00f2ff20000300200000004100da
:100c6400818049004409dd004c00de000000710071
:100c7400cc88de00008fbe0010c0b300a6ff0700c2
:100c84008000eb00629f20008289b900e002b90075
:100c94008401780003014100639f20000300b80031
:100ca4000101410082007800e00f5000e08f5800fd
:100cb40004003d00f2ff200003002000000041007a
:100cc400818049004409dd004c00de000000710011
:100cd400cc88de0020079800310798002e00900091
:100ce400be009000c401dd00020020001e02be0010
:100cf4004828dd00c820de00810070004820dd00a7
:100d040000017100818171000006200001002000b3
:100d1400000071008180710040079800510798001d
:100d240000c1b300404f98000040eb00504f9800c2
:100d340030c0b300604f98000e489000704f980088
:100d44001e489000005798002e48900010579800b5
:100d54003e489000205798006c0047008bff070026
:100d6400305798006c02470007000900345c780093
:100d74008800b100080078004f0478000080fa0071
:100d8400000006001400fa00881f780000047800b0
:100d940020c0b30060ff07008000eb00629f2000ca
:100da4008289b900e002b90084017800030141009e
:100db400639f20000300b800010141008200780015
:100dc400e00f5000e08f580004003d00f2ff2000c7
:100dd4000300200000004100818049004409dd0037
:100de4004c00de0000007100cc88de00008fbe00e5
:100df40030c0b30048ff07008000eb00629f200072
:100e04008289b900e002b90084017800030141003d
:100e1400639f20000300b8000101410082007800b4
:100e2400e00f5000e08f580004003d00f2ff200066
:100e34000300200000004100818049004409dd00d6
:100e44004c00de0000007100cc88de002007980012
:100e5400310798002e009000be009000c401dd0010
:100e6400020020001e02be004828dd00c820de006b
:100e7400810070004820dd00000171008181710053
:100e84002006200001002000000071008180710014
:100e9400400798005107980000c1b300404f9800e4
:100ea4000040eb00504f980030c0b300604f9800f2
:100eb4000e489000704f98001e489000005798000c
:100ec4002e489000105798003e48900020579800f4
:100ed4006c0047002dff0700305798006c02470054
:100ee40007000900345c78008800b100080078002d
:100ef4004f0478000080fa00000006001400fa0095
:100f0400881f78000004780040c0b30002ff070087
:100f14008000eb00629f20008289b900e002b900e2
:100f24008401780003014100639f20000300b8009e
:100f34000101410082007800e00f5000e08f58006a
:100f440004003d00f2ff20000300200000004100e7
:100f5400818049004409dd004c00de00000071007e
:100f6400cc88de00008fbe0050c0b300eafe07004c
:100f74008000eb00629f20008289b900e002b90082
:100f84008401780003014100639f20000300b8003e
:100f94000101410082007800e00f5000e08f58000a
:100fa40004003d00f2ff2000030020000000410087
:100fb400818049004409dd004c00de00000071001e
:100fc400cc88de0020079800310798002e0090009e
:100fd400be009000c401dd00020020001e02be001d
:100fe4004828dd00c820de00810070004820dd00b4
:100ff4000001710081817100400620000100200081
:10100400000071008180710040079800510798002a
:1010140000c1b300404f98000040eb00504f9800cf
:1010240030c0b300604f98000e489000704f980095
:101034001e489000005798002e48900010579800c2
:101044003e489000205798006c004700cffe0700f0
:10105400305798006c02470007000900345c7800a0
:101064008800b100080078004f0478000080fa007e
:10107400000006000c00fa00881f780000047800c5
:101084000040eb00a4fe07008000eb00e21c2300fc
:101094008289b900e002b9008401780003014100ab
:1010a400e31c23000300b800010141008200780022
:1010b4004409dd004c00de0000007100cc88de0035
:1010c400008fbe0000c1b300404798000040eb0011
:1010d4005047980030c0b300604798001e40780025
:1010e400704798001e409000004f98002e409000da
:1010f400104f98003e409000204f98006400470035
:10110400a2fe0700304f9800640247000700090060
:10111400345c78008800b100080078004f0478003f
:101124000080fa00000006001200fa00c466ef0016
:1011340014cea900a133800000fc2f0000806000c1
:101144000000a000a033880000808000e10f500060
:101154000c003200e10f500003003900e20f500090
:101164000f003200150037006a004700a7fe070091
:10117400e20047006a01470007000900b2587800fe
:101184000e0037006a004700fefe0700e200470039
:101194006a01470007000900b258780007003700c9
:1011a4006a00470055ff0700e20047006a01470054
:1011b40007000900b2587800000000000080800099
:1011c4000000e8000080880000808000e30f5000e9
:1011d40001003a000030ef00409923000100200094
:1011e4009f0007000000eb00000f780008003700a4
:1011f4001e80e8006e4078000080fb00201188000b
:10120400102e200001002000950007001e0fe800aa
:101214001e007800e70f5000f5ff360060c2b300ef
:10122400c4e6b700a133800000fc2f0000806000fa
:10123400a033880014cea8000080fa000000060045
:101244003600f800809fbe00829fbe00849fbe00cf
:10125400869fbe000200fa002222a9002168a9008c
:1012640030118000004f7800e0c7b3009e40780042
:1012740080cf50000d003a00102e20000100200005
:10128400770007003011800010479800102e2000ce
:1012940001002000720007009e409000a0c6b30029
:1012a40080cf500001003a009fff07000168a900a9
:1012b4002168a8000080fa004f03be004f02be0060
:1012c4004f01be004f00be003600f900004006008a
:1012d4003600f800809fbe00829fbe00849fbe003f
:1012e400869fbe000800fa000028a90050003700bd
:1012f400200a8000208088002180800010808000e7
:10130400008050008000eb00008fbe001e01be0074
:101314004318dd00cd10de00810070004310dd00b5
:1013240013fd0700a2702d00b3062400b3fc0700d0
:10133400f4fc070020079800310798002080800003
:10134400108088002e019000be0190003001200022
:1013540001002000800f5100818f590003003e00de
:1013640010c0b30014f0b7000800370014d0bf0059
:101374000004e00002003a001470ef00030037009c
:1013840014d0bf000040e80014f0b70014d0bf0030
:101394000080fb00e30f500024003200e40f5000f3
:1013a40005003200e20f500021003a0017eea800b9
:1013b40017eea9001e0037002e019000be01900018
:1013c400c057210001002000800f5100818f590077
:1013d4000500360020c0b30014f0b70010c0b300fd
:1013e40015f0b7001200370015d0bf000004e0006c
:1013f40002003a001570ef000d00370015d0bf0051
:101404000080fb000000e900ae00900000014000f5
:10141400e0012100000041000108780015d0bf0060
:101424000040e80015f0b70001003700000000009c
:10143400000a8000680060000000e000acff3a0091
:101444002028a8000080fa004f03be004f02be000f
:101454004f01be004f00be003600f90000400600f8
:020000040000fa
:10146400f03fb1000180b10006003500ee03090031
:1014740000000000403fb1000180b100fbff3d00cf
:101484001000b000203fb0000200350000800900c9
:0814940000000000000006004a
:020000040000fa
:10149c00161000002000000080000000001000006a
:0c14ac001600000080000000000000009e
:00000001FF
